:100000000C945D000C9485000C9485000C94850084
:100010000C9485000C9485000C9485000C9485004C
:100020000C9485000C9485000C9485000C9485003C
:100030000C9485000C9485000C9485000C9485002C
:100040000C9412040C9485000C94E0030C94BA03F5
:100050000C9485000C9485000C9485000C9485000C
:100060000C9485000C94850000000008000201003B
:100070000003040700000000000000000000000072
:10008000250028002B0000000000240027002A0083
:10009000040404040404040402020202020203032E
:1000A0000303030301020408102040800102040836
:1000B00010200102040810205C0411241FBECFEFA1
:1000C000D8E0DEBFCDBF11E0A0E0B1E0E4E7FBE0A7
:1000D00002C005900D92A237B107D9F722E0A2E73E
:1000E000B1E001C01D92A033B207E1F710E0CDE509
:1000F000D0E004C02197FE010E94B205CC35D107A3
:10010000C9F70E94A6040C94B8050C94000090E076
:10011000FC01EC55FF4F249180579F4FFC018491C7
:10012000882399F090E0880F991FFC01EA57FF4F50
:10013000A591B491FC01E458FF4F859194918FB73C
:10014000F894EC91E22BEC938FBF0895AF92BF929D
:10015000CF92DF92EF92FF920F931F93CF93DF9393
:100160006C017B018B01040F151FEB015E01AE18C2
:10017000BF08C017D10759F06991D601ED91FC91E4
:100180000190F081E02DC6010995892B79F7C50111
:10019000DF91CF911F910F91FF90EF90DF90CF9063
:1001A000BF90AF900895FC01538D448D252F30E012
:1001B000842F90E0821B930B541710F0CF96089574
:1001C00001970895FC01918D828D981761F0A28DA1
:1001D000AE0FBF2FB11D5D968C91928D9F5F9F7367
:1001E000928F90E008958FEF9FEF0895FC01918D1D
:1001F000828D981731F0828DE80FF11D858D90E08A
:1002000008958FEF9FEF0895FC01918D228D892F26
:1002100090E0805C9F4F821B91098F73992708950E
:100220008BE791E00E94040121E0892B09F420E092
:10023000822F089580E090E0892B29F00E94100120
:1002400081110C9400000895FC01A48DA80FB92F12
:10025000B11DA35ABF4F2C91848D90E001968F73EE
:100260009927848FA689B7892C93A089B1898C910D
:10027000837080648C93938D848D981306C002885C
:10028000F389E02D80818F7D80830895EF92FF9226
:100290000F931F93CF93DF93EC0181E0888F9B8DA9
:1002A0008C8D98131AC0E889F989808185FF15C063
:1002B0009FB7F894EE89FF896083E889F989808186
:1002C0008370806480839FBF81E090E0DF91CF9155
:1002D0001F910F91FF90EF900895F62E0B8D10E077
:1002E0000F5F1F4F0F731127E02E8C8D8E110CC0E6
:1002F0000FB607FCFACFE889F989808185FFF5CF31
:10030000CE010E942401F1CFEB8DEC0FFD2FF11DEA
:10031000E35AFF4FF0829FB7F8940B8FEA89FB896D
:1003200080818062CFCFCF93DF93EC01888D8823CB
:10033000B9F0AA89BB89E889F9898C9185FD03C048
:10034000808186FD0DC00FB607FCF7CF8C9185FF2D
:10035000F2CF808185FFEDCFCE010E942401E9CF4D
:10036000DF91CF91089590E0FC01E859FF4F24916F
:10037000FC01EC55FF4F3491FC01E057FF4FE49135
:10038000EE23C9F0222339F0233001F1A8F4213003
:1003900019F1223029F1F0E0EE0FFF1FE458FF4F72
:1003A000A591B4918FB7F894EC91611126C0309566
:1003B0003E233C938FBF08952730A9F02830C9F021
:1003C000243049F7809180008F7D03C080918000A8
:1003D0008F7780938000DFCF84B58F7784BDDBCFAC
:1003E00084B58F7DFBCF8091B0008F778093B00074
:1003F000D2CF8091B0008F7DF9CF3E2BDACF3FB7BF
:10040000F8948091770190917801A0917901B09151
:100410007A0126B5A89B05C02F3F19F00196A11DB2
:10042000B11D3FBFBA2FA92F982F8827BC01CD013E
:10043000620F711D811D911D42E0660F771F881F9D
:10044000991F4A95D1F708958F929F92AF92BF92CC
:10045000CF92DF92EF92FF924B015C010E94FF016D
:100460006B017C010E94FF016C197D098E099F09B7
:10047000683E734081059105A8F321E0821A910836
:10048000A108B10888EEC80E83E0D81EE11CF11C5B
:1004900081149104A104B10429F7FF90EF90DF903B
:1004A000CF90BF90AF909F908F900895089590E067
:1004B00080E00895FC0101900020E9F73197AF0139
:1004C000481B590BBC0188E192E00C94A600CF9325
:1004D000DF93EC0160E08E810E94B30161E08E81C8
:1004E0000E94B30160E08E810E94B3018BE891E02D
:1004F0000197F1F7DF91CF910895CF92DF92EF92BC
:10050000FF920F931F93CF93DF936C017C0187E0E1
:10051000E80EF11CD0E0C0E0062F10E0B8010C2E70
:1005200002C0759567950A94E2F76170F7018191B1
:100530007F010E94B3012196C430D10579F7C6012D
:10054000DF91CF911F910F91FF90EF90DF90CF90AF
:100550000C946702CF92DF92EF92FF920F931F935A
:10056000CF93DF93EC01F62E642F8C810E94B301B0
:100570008D818F3F19F060E00E94B3010F2D10E0D4
:100580008F8584FF25C06E0187E0C80ED11CF12C39
:10059000E12CB8010E2C02C0759567950A94E2F71C
:1005A0006170F60181916F010E94B301FFEFEF1AB4
:1005B000FF0A88E0E816F10461F7CE01DF91CF91E0
:1005C0001F910F91FF90EF90DF90CF900C946702F6
:1005D000B80184E0759567958A95E1F7CE010E9490
:1005E0007D026F2DCE01DF91CF911F910F91FF9072
:1005F000EF90DF90CF900C947D0240E0682F88E16F
:1006000092E00C94AA02CF93DF93823029F4909168
:10061000270298609093270280932B0210922C025D
:1006200080E480932D0280E180932E0280E5809308
:100630002F0280911C020E94870080911D028F3F33
:1006400011F00E94870080911E020E948700C8E17D
:10065000D2E09E01285132408091270284FD0AC0D9
:1006600084E090E02196281739073CF48E810E949F
:100670008700EFCF88E090E0F5CF8BE39DE0019716
:10068000F1F760E080911C020E94B30160E080916C
:100690001E020E94B30180911D028F3F19F060E09D
:1006A0000E94B3018091270284FD39C063E088E194
:1006B00092E00E947D02CBE4D6E4CE010197F1F7EF
:1006C00063E088E192E00E947D022197F1F763E008
:1006D00088E192E00E947D0283E592E00197F1F7C4
:1006E00062E088E192E00E947D02809127028062B0
:1006F0000E94FD0284E0809328028CE00E94FD02AB
:1007000081E00E94FD028BE39FE10197F1F782E017
:100710008093290286E0DF91CF910C94FD028062E4
:100720000E94FD028BE496E40197F1F78091270285
:1007300080620E94FD0283E592E00197F1F78091CB
:10074000270280620E94FD02D0CF90912B02691790
:1007500010F06FEF690FE62FF0E0E85EFD4F94892F
:10076000890F80680C94FD0241E00E94AA0281E09A
:1007700090E008951F920F920FB60F9211242F93BD
:100780003F934F935F936F937F938F939F93AF9319
:10079000BF93EF93FF938BE791E00E942401FF91B9
:1007A000EF91BF91AF919F918F917F916F915F91E9
:1007B0004F913F912F910F900FBE0F901F90189562
:1007C0001F920F920FB60F9211242F938F939F9326
:1007D000EF93FF93E0918B01F0918C018081E09188
:1007E0009101F091920182FD1BC090818091940152
:1007F0008F5F8F7320919501821741F0E0919401F2
:10080000F0E0E558FE4F958F80939401FF91EF91B2
:100810009F918F912F910F900FBE0F901F90189561
:100820008081F4CF1F920F920FB60F9211242F9355
:100830003F938F939F93AF93BF9380917301909158
:100840007401A0917501B09176013091720123E09D
:10085000230F2D3758F50196A11DB11D209372016C
:100860008093730190937401A0937501B093760106
:100870008091770190917801A0917901B0917A01EE
:100880000196A11DB11D8093770190937801A093EB
:100890007901B0937A01BF91AF919F918F913F9170
:1008A0002F910F900FBE0F901F90189526E8230FE1
:1008B0000296A11DB11DD2CFEBE7F1E013821282A7
:1008C00088EE93E0A0E0B0E084839583A683B783AD
:1008D00084E091E09183808385EC90E09587848724
:1008E00084EC90E09787868780EC90E0918B808BFA
:1008F00081EC90E0938B828B82EC90E0958B848BE3
:1009000086EC90E0978B868B118E128E138E148E50
:10091000E8E1F2E01382128286E191E09183808324
:100920008DE084838FEF85838CE086838BE08783E3
:100930008AE0808789E0818788E082871386148631
:1009400015861686178681E00C940303789484B587
:10095000826084BD84B5816084BD85B5826085BDBB
:1009600085B5816085BD80916E00816080936E0049
:10097000109281008091810082608093810080913B
:1009800081008160809381008091800081608093EC
:1009900080008091B10084608093B1008091B000AC
:1009A00081608093B00080917A00846080937A00A7
:1009B00080917A00826080937A0080917A008160D1
:1009C00080937A0080917A00806880937A001092F8
:1009D000C10082E00E940303E0918B01F0918C0141
:1009E00082E08083E0918701F09188011082E0919C
:1009F0008901F0918A018FEC808310929301E0913C
:100A00008F01F091900186E08083E0918D01F0915B
:100A10008E01808180618083E0918D01F0918E0153
:100A2000808188608083E0918D01F0918E018081CA
:100A300080688083E0918D01F0918E0180818F7DAF
:100A4000808384E00E94870060E080E00E94A5032C
:100A50008EE191E00E945A0261E080E00E94A503CD
:100A60008BE291E00E945A0260ED77E080E090E036
:100A70000E94240281E00E94FD028BE39FE1019726
:100A8000F1F7C0E0D0E08BE791E00E940401181676
:100A900019063CF58BE791E00E94E200813499F45D
:100AA00060E080E00E94A50388E391E00E945A0282
:100AB00061E084E00E94B30168EE73E080E090E0C2
:100AC0000E9424020AC08136A9F460E080E00E94FE
:100AD000A5038FE391E00E945A0260E084E00E9447
:100AE000B301209781F20E941001882361F20E94D5
:100AF0000000C9CF883739F461E080E00E94A50387
:100B000086E491E0E8CF883539F461E080E00E9426
:100B1000A5038FE491E0CACF8A3739F461E089E018
:100B20000E94A50388E591E0D6CF8A3539F461E0CB
:100B300089E00E94A5038FE591E0B8CF863539F4AE
:100B400060E089E00E94A50386E691E0AFCF86379A
:100B500041F660E089E00E94A5038CE691E00E94E6
:100B60005A02BFCFEE0FFF1F0590F491E02D0994BC
:040B7000F894FFCF27
:100B7400000000004601A600D30093010401E20036
:100B8400F60000000000B403A600570256025755B1
:100B9400534E204241534544202000434F414C20B2
:100BA4004D494E494E47200054656D705F480054CE
:100BB400656D705F4C004741535F4C4F57200047B1
:100BC40041535F48494748004D4F49535F4C004DDE
:100BD4004F49535F48005649425F48005649425FB7
:020BE4004C00C3
:00000001FF
