:020000040000FA
:100000000C9462000C948A000C948A000C948A0070
:100010000C948A000C948A000C948A000C948A0038
:100020000C948A000C948A000C948A000C948A0028
:100030000C948A000C948A000C948A000C948A0018
:100040000C94CF020C948A000C949D020C947702BD
:100050000C948A000C948A000C948A000C948A00F8
:100060000C948A000C948A000000000023002600F3
:10007000290000000008000201000003040700003E
:1000800000000000000000000000250028002B00F8
:1000900000000000240027002A00040404040404D3
:1000A0000404020202020202030303030303010227
:1000B00004081020408001020408102001020408F6
:1000C0001020230411241FBECFEFD8E0DEBFCDBF28
:1000D00011E0A0E0B1E0E2E1FBE002C005900D928A
:1000E000A631B107D9F721E0A6E1B1E001C01D9228
:1000F000A23CB207E1F710E0C2E6D0E004C02197CD
:10010000FE010E948105C136D107C9F70E9419037B
:100110000C9487050C940000CF93DF9390E0FC01D2
:10012000E255FF4F249186569F4FFC01849188230E
:10013000C1F090E0880F991FFC01E057FF4FC59177
:10014000D491FC01EA57FF4FA591B4919FB7F89461
:100150008881E22FE0958E2388838C91E823EC93AD
:100160009FBFDF91CF910895AF92BF92CF92DF9260
:10017000EF92FF920F931F93CF93DF936C017B015C
:100180008B01040F151FEB015E01AE18BF08C017ED
:10019000D10759F06991D601ED91FC910190F08160
:1001A000E02DC6010995892B79F7C501DF91CF9123
:1001B0001F910F91FF90EF90DF90CF90BF90AF9085
:1001C0000895FC01538D448D252F30E0842F90E05D
:1001D000821B930B541710F0CF9608950197089542
:1001E000FC01918D828D981761F0A28DAE0FBF2F0B
:1001F000B11D5D968C91928D9F5F9F73928F90E061
:1002000008958FEF9FEF0895FC01918D828D9817CF
:1002100031F0828DE80FF11D858D90E008958FEF0C
:100220009FEF0895FC01918D228D892F90E0805CD5
:100230009F4F821B91098F739927089585E291E062
:100240000E94120121E0892B09F420E0822F0895F9
:1002500080E090E0892B29F00E941E0181110C940E
:1002600000000895FC01A48DA80FB92FB11DA35A59
:10027000BF4F2C91848D90E001968F739927848FC6
:10028000A689B7892C93A089B1898C9183708064E9
:100290008C93938D848D981306C00288F389E02D8A
:1002A00080818F7D80830895EF92FF920F931F933B
:1002B000CF93DF93EC0181E0888F9B8D8C8D981319
:1002C0001AC0E889F989808185FF15C09FB7F89425
:1002D000EE89FF896083E889F98980818370806471
:1002E00080839FBF81E090E0DF91CF911F910F91BC
:1002F000FF90EF900895F62E0B8D10E00F5F1F4FCB
:100300000F731127E02E8C8D8E110CC00FB607FCD9
:10031000FACFE889F989808185FFF5CFCE010E9467
:100320003201F1CFEB8DEC0FFD2FF11DE35AFF4FA2
:10033000F0829FB7F8940B8FEA89FB8980818062F5
:10034000CFCFCF93DF93682F85E291E00E945401D5
:10035000EC0142E050E062E171E085E291E00E9450
:10036000B4008C0F9D1FDF91CF910895CF93DF9341
:10037000EC01888D8823B9F0AA89BB89E889F989BD
:100380008C9185FD03C0808186FD0DC00FB607FCF2
:10039000F7CF8C9185FFF2CF808185FFEDCFCE0125
:1003A0000E943201E9CFDF91CF91089590E0FC01E6
:1003B000EE58FF4F2491FC01E255FF4F3491FC01B0
:1003C000E656FF4FE491EE23C1F1222339F02330AA
:1003D000E9F090F4213001F1223011F1F0E0EE0F5C
:1003E000FF1FE859FF4FA591B491EC91E32381E001
:1003F00090E029F580E008952730A9F02830C9F071
:10040000243061F7809180008F7D03C0809180004F
:100410008F7780938000E2CF84B58F7784BDDECF65
:1004200084B58F7DFBCF8091B0008F778093B00033
:10043000D5CF8091B0008F7DF9CF80E090E0089516
:100440003FB7F89480911B0190911C01A0911D0170
:10045000B0911E0126B5A89B05C02F3F19F001964B
:10046000A11DB11D3FBFBA2FA92F982F8827BC010E
:10047000CD01620F711D811D911D42E0660F771F36
:10048000881F991F4A95D1F708958F929F92AF9236
:10049000BF92CF92DF92EF92FF924B015C010E94DC
:1004A00020026B017C010E9420026C197D098E09DB
:1004B0009F09683E734081059105A8F321E0821AE7
:1004C0009108A108B10888EEC80E83E0D81EE11C8F
:1004D000F11C81149104A104B10429F7FF90EF905D
:1004E000DF90CF90BF90AF909F908F9008951F9214
:1004F0000F920FB60F9211242F933F934F935F9358
:100500006F937F938F939F93AF93BF93EF93FF93DB
:1005100085E291E00E943201FF91EF91BF91AF918E
:100520009F918F917F916F915F914F913F912F910B
:100530000F900FBE0F901F9018951F920F920FB63D
:100540000F9211242F938F939F93EF93FF93E0913A
:100550003501F09136018081E0913B01F0913C0141
:1005600082FD1BC0908180913E018F5F8F7320912F
:100570003F01821741F0E0913E01F0E0EB5DFE4F5C
:10058000958F80933E01FF91EF919F918F912F91D5
:100590000F900FBE0F901F9018958081F4CF1F927F
:1005A0000F920FB60F9211242F933F938F939F9327
:1005B000AF93BF938091170190911801A0911901F9
:1005C000B0911A013091160123E0230F2D3758F511
:1005D0000196A11DB11D20931601809317019093E0
:1005E0001801A0931901B0931A0180911B019091F9
:1005F0001C01A0911D01B0911E010196A11DB11D0C
:1006000080931B0190931C01A0931D01B0931E01C8
:10061000BF91AF919F918F913F912F910F900FBEFE
:100620000F901F90189526E8230F0296A11DB11D6B
:10063000D2CF789484B5826084BD84B5816084BD56
:1006400085B5826085BD85B5816085BD80916E0070
:10065000816080936E0010928100809181008260A1
:1006600080938100809181008160809381008091DE
:1006700080008160809380008091B10084608093CD
:10068000B1008091B00081608093B00080917A00C9
:10069000846080937A0080917A00826080937A00EF
:1006A00080917A00816080937A0080917A008068DE
:1006B00080937A001092C100E0913501F0913601EB
:1006C00082E08083E0913101F09132011082E0916B
:1006D0003301F09134018FEC808310923D01E09161
:1006E0003901F0913A0186E08083E0913701F09181
:1006F0003801808180618083E0913701F091380179
:10070000808188608083E0913701F0913801808199
:1007100080688083E0913701F091380180818F7D7E
:10072000808383E00E948C0084E00E948C0085E03E
:100730000E948C008EE00E948C0010E4C0E0D0E0AB
:1007400084E00E94D601909324018093230183E0EA
:100750000E94D601909322018093210185E00E949E
:10076000D6019093200180931F0110937C0080910B
:100770007A00806480937A0080917A0086FDFCCFB5
:100780006091780070917900072E000C880B990B0E
:100790000E9488042FE832EC45EF5EE30E94EC04EF
:1007A0000E94500481E6683271050CF081E40E94D9
:1007B000A10168EE73E080E090E00E944502809124
:1007C000210190912201019791F588E70E94A101F2
:1007D00068EE73E080E090E00E9445028091230182
:1007E00090912401892B29F58AE50E94A10168EEE8
:1007F00073E080E090E00E94450280911F0190919B
:100800002001892BF1F486E50E94A10168EE73E0D6
:1008100080E090E00E944502209709F491CF0E9469
:100820001E01882309F48CCF0E94000089CF88E53F
:10083000CDCF8AE70E94A10160ED77E080E090E0F3
:10084000DACF86E7E1CFE5E2F1E01382128288EEAB
:1008500093E0A0E0B0E084839583A683B78384E02F
:1008600091E09183808385EC90E09587848784EC88
:1008700090E09787868780EC90E0918B808B81EC6D
:1008800090E0938B828B82EC90E0958B848B86EC4E
:1008900090E0978B868B118E128E138E148E089596
:1008A0000E9457046894B1110C94E60408950E94C4
:1008B000CB0488F09F5798F0B92F9927B751B0F023
:1008C000E1F0660F771F881F991F1AF0BA95C9F7D4
:1008D00014C0B13091F00E94E504B1E008950C9489
:1008E000E504672F782F8827B85F39F0B93FCCF33C
:1008F000869577956795B395D9F73EF49095809551
:10090000709561957F4F8F4F9F4F0895E89409C070
:1009100097FB3EF490958095709561957F4F8F4F32
:100920009F4F9923A9F0F92F96E9BB279395F69548
:10093000879577956795B795F111F8CFFAF4BB0FC6
:1009400011F460FF1BC06F5F7F4F8F4F9F4F16C02A
:10095000882311F096E911C0772321F09EE8872FB4
:10096000762F05C0662371F096E8862F70E060E070
:100970002AF09A95660F771F881FDAF7880F9695E9
:10098000879597F9089557FD9058440F551F59F0D2
:100990005F3F71F04795880F97FB991F61F09F3F6C
:1009A00079F087950895121613061406551FF2CF95
:1009B0004695F1DF08C0161617061806991FF1CFE5
:1009C00086957105610508940895E894BB2766270C
:1009D0007727CB0197F908950E94FF040C947005C6
:1009E0000E94620538F00E94690520F0952311F0FD
:1009F0000C9459050C945F0511240C94E6040E9494
:100A0000C30470F3959FC1F3950F50E0551F629F8B
:100A1000F001729FBB27F00DB11D639FAA27F00D57
:100A2000B11DAA1F649F6627B00DA11D661F829F7E
:100A30002227B00DA11D621F739FB00DA11D621F63
:100A4000839FA00D611D221F749F3327A00D611D80
:100A5000231F849F600D211D822F762F6A2F112462
:100A60009F5750409AF0F1F088234AF0EE0FFF1F95
:100A7000BB1F661F771F881F91505040A9F79E3FEC
:100A8000510580F00C9459050C94E6045F3FE4F3A3
:100A9000983ED4F3869577956795B795F795E79542
:100AA0009F5FC1F7FE2B880F911D9695879597F94B
:100AB000089597F99F6780E870E060E008959FEFE0
:100AC00080EC089500240A941616170618060906E5
:100AD000089500240A9412161306140605060895B4
:100AE000092E0394000C11F4882352F0BB0F40F43C
:100AF000BF2B11F460FF04C06F5F7F4F8F4F9F4F7C
:100B00000895EE0FFF1F0590F491E02D0994F894DD
:100B1000FFCF000000005401B400E100B601120153
:080B2000F00004010D0A0000C1
:107E0000112484B714BE81FFF0D085E080938100F7
:107E100082E08093C00088E18093C10086E0809377
:107E2000C20080E18093C4008EE0C9D0259A86E02C
:107E300020E33CEF91E0309385002093840096BBD3
:107E4000B09BFECF1D9AA8958150A9F7CC24DD24C4
:107E500088248394B5E0AB2EA1E19A2EF3E0BF2EE7
:107E6000A2D0813461F49FD0082FAFD0023811F036
:107E7000013811F484E001C083E08DD089C08234E0
:107E800011F484E103C0853419F485E0A6D080C0E4
:107E9000853579F488D0E82EFF2485D0082F10E0AE
:107EA000102F00270E291F29000F111F8ED06801E7
:107EB0006FC0863521F484E090D080E0DECF843638
:107EC00009F040C070D06FD0082F6DD080E0C81688
:107ED00080E7D80618F4F601B7BEE895C0E0D1E017
:107EE00062D089930C17E1F7F0E0CF16F0E7DF06D8
:107EF00018F0F601B7BEE89568D007B600FCFDCFD4
:107F0000A601A0E0B1E02C9130E011968C91119780
:107F100090E0982F8827822B932B1296FA010C0160
:107F200087BEE89511244E5F5F4FF1E0A038BF0790
:107F300051F7F601A7BEE89507B600FCFDCF97BE46
:107F4000E89526C08437B1F42ED02DD0F82E2BD052
:107F50003CD0F601EF2C8F010F5F1F4F84911BD097
:107F6000EA94F801C1F70894C11CD11CFA94CF0C13
:107F7000D11C0EC0853739F428D08EE10CD085E9AC
:107F80000AD08FE07ACF813511F488E018D01DD067
:107F900080E101D065CF982F8091C00085FFFCCF94
:107FA0009093C60008958091C00087FFFCCF809118
:107FB000C00084FD01C0A8958091C6000895E0E648
:107FC000F0E098E1908380830895EDDF803219F02E
:107FD00088E0F5DFFFCF84E1DECF1F93182FE3DFCA
:107FE0001150E9F7F2DF1F91089580E0E8DFEE27F6
:047FF000FF270994CA
:027FFE00040479
:00000001FF
