:100000000C9462000C948A000C948A000C948A0070
:100010000C948A000C948A000C948A000C948A0038
:100020000C948A000C948A000C948A000C948A0028
:100030000C948A000C948A000C948A000C948A0018
:100040000C94D9020C948A000C94A7020C9481029F
:100050000C948A000C948A000C948A000C948A00F8
:100060000C948A000C948A000000000023002600F3
:10007000290000000008000201000003040700003E
:1000800000000000000000000000250028002B00F8
:1000900000000000240027002A00040404040404D3
:1000A0000404020202020202030303030303010227
:1000B00004081020408001020408102001020408F6
:1000C0001020180411241FBECFEFD8E0DEBFCDBF33
:1000D00011E0A0E0B1E0E6E0FBE002C005900D9287
:1000E000A631B107D9F721E0A6E1B1E001C01D9228
:1000F000A63CB207E1F710E0C2E6D0E004C02197C9
:10010000FE010E947605C136D107C9F70E9423037C
:100110000C9481050C940000CF93DF9390E0FC01D8
:10012000E255FF4F2491FC01E656FF4F849188234E
:10013000C1F090E0880F991FFC01E057FF4FC59177
:10014000D491FC01EA57FF4FA591B4919FB7F89461
:100150008881E22FE0958E2388838C91E823EC93AD
:100160009FBFDF91CF910895CF92DF92EF92FF92E0
:100170000F931F93CF93DF936C017A018B01C0E043
:10018000D0E0CE15DF0589F0D8016D918D01D60143
:10019000ED91FC910190F081E02DC6010995892B2C
:1001A00011F47E0102C02196ECCFC701DF91CF91FF
:1001B0001F910F91FF90EF90DF90CF900895CF9314
:1001C000DF93E0912901F0912A010190F081E02D67
:1001D000682F89E291E00995EC0142E050E062E18C
:1001E00071E089E291E00E94B4008C0F9D1FDF91C5
:1001F000CF910895089580E090E00895FC01538D1B
:10020000448D252F30E0842F90E0821B930B5417F0
:1002100010F0CF96089501970895FC01918D828D7D
:10022000981761F0828DDF01A80FB11D5D968C914A
:10023000928D9F5F9F73928F90E008958FEF9FEF55
:100240000895FC01918D828D981731F0828DE80F11
:10025000F11D858D90E008958FEF9FEF0895FC01CB
:10026000918D228D892F90E0805C9F4F821B910998
:100270008F739927089589E291E00E942F0121E070
:10028000892B09F420E0822F0895FC01848DDF0181
:10029000A80FB11DA35ABF4F2C91848D90E00196F9
:1002A0008F739927848FA689B7892C93A089B189E8
:1002B0008C9180648C93938D848D981306C00288F2
:1002C000F389E02D80818F7D80830895EF92FF92E6
:1002D0000F931F93CF93DF93EC0181E0888F9B8D69
:1002E0008C8D981305C0E889F989808185FD24C02B
:1002F000F62E0B8D10E00F5F1F4F0F731127E02EAE
:100300008C8DE8120CC00FB607FCFACFE889F9898A
:10031000808185FFF5CFCE010E944501F1CF8B8D05
:10032000FE01E80FF11DE35AFF4FF0820B8FEA89BF
:10033000FB898081806207C0EE89FF896083E8893C
:10034000F98980818064808381E090E0DF91CF91A2
:100350001F910F91FF90EF900895CF93DF93EC01E1
:10036000888D8823C9F0EA89FB89808185FD05C0D5
:10037000A889B9898C9186FD0FC00FB607FCF5CF0F
:10038000808185FFF2CFA889B9898C9185FFEDCF57
:10039000CE010E944501E7CFDF91CF91089580E023
:1003A00090E0892B29F00E943B0181110C94000000
:1003B000089590E0FC01EE58FF4F2491FC01E255B6
:1003C000FF4F3491FC01E656FF4FE491EE23B9F163
:1003D000222339F1233091F038F42130A9F0223072
:1003E00001F584B58F7D12C0273091F02830A1F03F
:1003F0002430B9F4809180008F7D03C0809180000B
:100400008F77809380000DC084B58F7784BD09C03D
:100410008091B0008F7703C08091B0008F7D809372
:10042000B000F0E0EE0FFF1FE859FF4FA591B49127
:10043000EC913E2381E090E021F480E0089580E09B
:1004400090E008953FB7F89480911B0190911C01B2
:10045000A0911D01B0911E0126B5A89B05C02F3F9C
:1004600019F00196A11DB11D3FBFBA2FA92F982FDA
:100470008827820F911DA11DB11DBC01CD0142E055
:10048000660F771F881F991F4A95D1F708958F929D
:100490009F92AF92BF92CF92DF92EF92FF920E9413
:1004A00022024B015C0188EEC82E83E0D82EE12C9D
:1004B000F12C0E942202DC01CB0188199909AA09BA
:1004C000BB09883E9340A105B10558F021E0C21A4E
:1004D000D108E108F10888EE880E83E0981EA11C7F
:1004E000B11CC114D104E104F10419F7FF90EF909D
:1004F000DF90CF90BF90AF909F908F9008950E9413
:100500007C051F920F920FB60F9211242F933F93E9
:100510004F935F936F937F938F939F93AF93BF930B
:10052000EF93FF9389E291E00E944501FF91EF91E3
:10053000BF91AF919F918F917F916F915F914F91FB
:100540003F912F910F900FBE0F901F9018951F9203
:100550000F920FB60F9211242F938F939F93EF93C7
:10056000FF93E0913901F0913A018081E0913F01E0
:10057000F091400182FD12C09081809142018F5F15
:100580008F7320914301821751F0E0914201F0E016
:10059000E75DFE4F958F8093420101C08081FF91FE
:1005A000EF919F918F912F910F900FBE0F901F9001
:1005B00018951F920F920FB60F9211242F933F930D
:1005C0008F939F93AF93BF938091170190911801E0
:1005D000A0911901B0911A013091160123E0230F67
:1005E0002D3720F40196A11DB11D05C026E8230F6B
:1005F0000296A11DB11D20931601809317019093BF
:100600001801A0931901B0931A0180911B019091D8
:100610001C01A0911D01B0911E010196A11DB11DEB
:1006200080931B0190931C01A0931D01B0931E01A8
:10063000BF91AF919F918F913F912F910F900FBEDE
:100640000F901F901895789484B5826084BD84B50E
:10065000816084BD85B5826085BD85B5816085BDBD
:1006600080916E00816080936E0010928100809175
:1006700081008260809381008091810081608093FD
:100680008100809180008160809380008091B10022
:1006900084608093B1008091B00081608093B0004D
:1006A00080917A00846080937A0080917A008260E1
:1006B00080937A0080917A00816080937A008091A3
:1006C0007A00806880937A001092C100E09139012D
:1006D000F0913A0182E08083E0913501F09136019A
:1006E0001082E0913701F09138018FEC80831092F5
:1006F0004101E0913D01F0913E0186E08083E0916F
:100700003B01F0913C01808180618083E0913B015D
:10071000F0913C01808188608083E0913B01F09101
:100720003C01808180688083E0913B01F0913C0135
:1007300080818F7D808383E00E948C0084E00E9412
:100740008C0085E00E948C008EE00E948C00C0E44A
:1007500084E00E94D901909328018093270183E0CF
:100760000E94D901909326018093250185E00E9483
:10077000D9019093240180932301C0937C00809140
:100780007A00806480937A0080917A0086FDFCCFA5
:10079000609178008091790070E0782B709322014D
:1007A00060932101072E000C880B990B0E947D0499
:1007B0002FE832EC45EF5EE30E94E1040E9445041D
:1007C0007093200160931F016832710514F481E673
:1007D00001C081E40E94DF000E9447028091250150
:1007E00090912601019711F488E701C088E50E94E5
:1007F000DF000E9447028091270190912801892BF8
:1008000011F48AE501C08AE70E94DF000E944702D6
:100810008091230190912401892B11F486E501C078
:1008200086E70E94DF000E9447020E94CF0190CF1E
:10083000E9E2F1E01382128288EE93E0A0E0B0E0FA
:1008400084839583A683B78384E091E0918380833A
:1008500085EC90E09587848784EC90E09787868785
:1008600080EC90E0918B808B81EC90E0938B828B7D
:1008700082EC90E0958B848B86EC90E0978B868B56
:10088000118E128E138E148E08950E944C0468945B
:10089000B1110C94DB0408950E94C00488F09F57A6
:1008A00098F0B92F9927B751B0F0E1F0660F771F94
:1008B000881F991F1AF0BA95C9F714C0B13091F08A
:1008C0000E94DA04B1E008950C94DA04672F782FBF
:1008D0008827B85F39F0B93FCCF38695779567954F
:1008E000B395D9F73EF490958095709561957F4FBB
:1008F0008F4F9F4F0895E89409C097FB3EF4909561
:100900008095709561957F4F8F4F9F4F9923A9F0E8
:10091000F92F96E9BB279395F69587957795679577
:10092000B795F111F8CFFAF4BB0F11F460FF1BC0BB
:100930006F5F7F4F8F4F9F4F16C0882311F096E94E
:1009400011C0772321F09EE8872F762F05C06623FC
:1009500071F096E8862F70E060E02AF09A95660FB5
:10096000771F881FDAF7880F9695879597F908956E
:1009700057FD9058440F551F59F05F3F71F0479550
:10098000880F97FB991F61F09F3F79F08795089535
:10099000121613061406551FF2CF4695F1DF08C054
:1009A000161617061806991FF1CF86957105610571
:1009B00008940895E894BB2766277727CB0197F919
:1009C00008950E94F4040C9465050E94570538F0C0
:1009D0000E945E0520F0952311F00C944E050C94B6
:1009E000540511240C94DB040E94B80470F3959F05
:1009F000C1F3950F50E0551F629FF001729FBB2716
:100A0000F00DB11D639FAA27F00DB11DAA1F649FB1
:100A10006627B00DA11D661F829F2227B00DA11D64
:100A2000621F739FB00DA11D621F839FA00D611DEA
:100A3000221F749F3327A00D611D231F849F600D0B
:100A4000211D822F762F6A2F11249F5750409AF034
:100A5000F1F088234AF0EE0FFF1FBB1F661F771FC0
:100A6000881F91505040A9F79E3F510580F00C948B
:100A70004E050C94DB045F3FE4F3983ED4F3869577
:100A800077956795B795F795E7959F5FC1F7FE2B2B
:100A9000880F911D9695879597F9089597F99F6707
:100AA00080E870E060E008959FEF80EC08950024F6
:100AB0000A941616170618060906089500240A94C3
:100AC00012161306140605060895092E0394000C49
:100AD00011F4882352F0BB0F40F4BF2B11F460FFD8
:100AE00004C06F5F7F4F8F4F9F4F0895EE0FFF1F22
:100AF0000590F491E02D099481E090E0F8940C9435
:060B00008105F894FFCF0F
:100B0600000000006601B400FE00AD012F010D01DA
:060B160021010D0A0000A0
:00000001FF
